:100000005DC0CFC174C073C072C071C070C06FC01A
:100010006EC06DC06CC06BC06AC069C068C067C08C
:1000200066C065C064C01201100100000008C0165F
:10003000DC2700010102000109023B0002010080EF
:10004000320904000001030000030921010100013D
:10005000222A000705810308000A090401000103A0
:10006000000004092101010001222A000705830381
:1000700008000A05010904A1010901A100093009CC
:100080003115FF2501750395028102C0050919018B
:10009000290215002501750195028102C068657865
:1000A00061676F6E732E646500526574726F2D4ABE
:1000B0006F79737469636B202378000011241FBE6D
:1000C000CFEDCDBF10E0A0E6B0E0E2EEF7E002C079
:1000D00005900D92A836B107D9F710E0A8E6B0E078
:1000E00001C01D92A03DB107E1F708D378C388CFC6
:1000F00085B7826085BF8BB780648BBF8BE48093AC
:100100009A008093C5008AE5809399008093C4008B
:1001100008951F93CF93DF939091AA00935097FD7A
:1001200091C02091A7008091A6008D3209F088C06F
:10013000983009F085C0CCE0D0E0C21BD109C2558F
:10014000DF4F83EC80938E008AE5809360001092ED
:1001500068008881807621F0CE01A7D2282F67C061
:100160009A81109297008981882321F41092980037
:1001700022E057C0853019F49093AB0051C086300F
:10018000C9F58B81813049F486E290E09093A90013
:100190008093A80080E422E12AC0823049F488E3F9
:1001A00090E09093A9008093A80080E42BE31FC007
:1001B000833029F4CE013AD2282F80E018C0813252
:1001C00049F48AE490E09093A9008093A80080E429
:1001D00029E00DC0823219F080E420E008C083E7F6
:1001E00090E09093A9008093A80080E42AE2809395
:1001F00068001DC0883021F421E08DEA90E013C032
:10020000893019F49093AD000BC08A3011F421E0CD
:1002100008C08B3029F48BE480939A008093C5004A
:1002200020E087E990E09093A9008093A8008F8157
:10023000882321F48E81821708F4282F20936100EF
:100240001092AA008091600084FF49C080916100F3
:100250008F3F09F444C0182F893008F018E0811B43
:100260008093610080918E0098E8892780938E00AA
:10027000112341F12091A8003091A90080916800DC
:1002800086FF0DC0AFE8B0E080E090E0F901E80F34
:10029000F91FE491ED9301961817C1F708C0912F4B
:1002A000D901EFE8F0E08D9181939150E1F7115081
:1002B000812F90E01F5F0196820F931F9093A900FA
:1002C0008093A8008FE890E0612F67D0612F6C5F6A
:1002D0006C3019F08FEF809361006093600094E1BF
:1002E00086B3837031F49150D9F71092AB0010921D
:1002F000A500DF91CF911F9108951F93CF93DF93B6
:10030000DC01162FEA01888184FF05C0898198E805
:100310008927898302C08AE58883AE014E5F5F4FDB
:10032000212FFA018D91819321501216DCF3CA011D
:10033000612F33D01C5F1883DF91CF911F910895F7
:1003400044EC50E0DADF089549E950E0D6DF089543
:10035000A82FB92F8FEF9FEF1BC02D918227282F39
:1003600022952827722F26952695272723952695AF
:100370002170782F892F82272195207C922F222788
:100380007695279597278227769527959727822711
:10039000615018F7809590950895DADF8D939D93BD
:1003A0000895CF93CFB7CF93C395B09BE9F7B09B98
:1003B00009C0B09B07C0B09B05C0B09B03C0B09BF9
:1003C00001C0A3C0DF93C091A700DD27C255DF4F56
:1003D000B09B02C0DF91EBCF2F930F931F9306B317
:1003E0002FEF00FB20F94F933F9316B34FEF0127F8
:1003F00000FB21F93BE031C04E7F012F16B3216095
:1004000028C0102F4D7F2260000006B329C04B7F0B
:100410002460012F000016B32BC016B3477F28605D
:100420002AC04F7E06B320612CC04F7D16B32062D8
:100430002FC04F7B06B3206432C0422706B34993D6
:100440004FEF0000102710FB20F916B31370C9F10D
:10045000297F91F2012700FB21F906B3237F89F25E
:10046000315058F1102710FB22F916B3277E79F28C
:10047000012700FB23F92F7C81F206B3102710FB24
:1004800024F92F7971F200C016B3012700FB25F97A
:100490002F7359F200C006B3102710FB26F9223043
:1004A00040F200C016B3012700FB27F9243028F6DC
:1004B0004F77206816B30000F9CF10E41ABF002769
:1004C00019C03B503195C31BD04010E41ABF0881BE
:1004D000033CF9F00B34E9F02091A5001981110FCC
:1004E0001213EDCF4A81441F093641F10D3211F04C
:1004F000013E29F70093AC003F914F911F910F915E
:100500002F91DF91CAB7C6FD4FCFCF91CFBFCF910B
:1005100018952091AC00222379F31091AA001123A1
:10052000C1F53430C2F13093AA002093A600109197
:10053000A7003BE0311B3093A7002DC00091AA001B
:1005400001303CF50AE54F7049F43091600034FD0C
:1005500024C000936000CEE8D0E023C0433049F0CF
:100560003091990034FD19C000939900CAE9D0E098
:1005700018C03091C40034FD10C00093C400C5EC15
:10058000D0E00FC02795A8F45150A9F4220F000025
:10059000F9CF4AE503C042ED01C0432FC4E1D0E0EA
:1005A00032E017B31360C09A17BB08B320E413E01E
:1005B0005F93012756E008BB279520F4515021F4A2
:1005C000220FF9CF012756E000003B5A08BBD0F2BA
:1005D000279528F4515029F4220F0000F9CF012764
:1005E00056E0279508BB20F4515021F4220FF9CF93
:1005F000012756E02991332308BB21F60C7F109187
:10060000AB00110FC651D04008BB11F01093A500EC
:1006100010E41ABF016017B31C7F402F4C7F5F911D
:1006200000C000C008BB17BB48BB66CFFC0192816D
:10063000992341F484E690E09093A9008093A80068
:1006400034E031C0913021F48DE990E038E105C00B
:10065000923029F489EA90E03EE140E00BC0892F16
:100660008350823010F030E01EC0492F425D89EA8D
:1006700090E034E2ACE6B0E002C02C931296FC01AC
:10068000019624912223C9F730936A0083E0809376
:100690006B00442311F040938C008AE690E0909325
:1006A000A9008093A800832F0895FC0180818076A3
:1006B0008032A9F48181813019F0823081F407C041
:1006C00084819581817090708E599F4F02C089E618
:1006D00090E09093A9008093A80081E0089580E0C5
:1006E00008958095982F907C85FD986084FD98638F
:1006F00083FD916082FD9760892F08958CEF88BB00
:100700008BE782BB2EE088E190E00FB6F894A895C5
:1007100081BD0FBE21BDECDCB89A20E048EB5BE068
:1007200003C0CA010197F1F72150D9F780E090E0AA
:1007300040D0F82E86B38C77883311F460E003C084
:10074000843361F461E06F1549F080E090E039D0C6
:1007500001C0A89586B38C7F8C3FD9F7B898789460
:10076000A895D7DC86B3BDDF082F80B38B77982F91
:1007700096958295880F880F807C892BB2DF182F81
:10078000FF2011F0102F082F80916200801731F0A8
:100790000093620082E690E061E0D6DD8091630024
:1007A0008117F1F21093630083E690E061E0C8DD09
:1007B000D7CFE199FECF1FBA8EBBE09A99278DB3B0
:1007C0000895262FE199FECF1CBA1FBA8EBB2DBB10
:1007D0000FB6F894E29AE19A0FBE01960895F89444
:0207E000FFCF49
:0807E2005AFF0202040309049E
:00000001FF
